{
  "_format": "hh-sol-artifact-1",
  "contractName": "BitLogix",
  "sourceName": "contracts/BitLogix.sol",
  "abi": [
    {
      "inputs": [],
      "stateMutability": "nonpayable",
      "type": "constructor"
    },
    {
      "inputs": [],
      "name": "claimTokens",
      "outputs": [],
      "stateMutability": "nonpayable",
      "type": "function"
    },
    {
      "inputs": [
        {
          "internalType": "address",
          "name": "enterpriseAddress",
          "type": "address"
        },
        {
          "internalType": "uint256",
          "name": "productIndex",
          "type": "uint256"
        }
      ],
      "name": "confirmReceipt",
      "outputs": [],
      "stateMutability": "nonpayable",
      "type": "function"
    },
    {
      "inputs": [
        {
          "internalType": "string",
          "name": "name",
          "type": "string"
        },
        {
          "internalType": "uint256",
          "name": "Price",
          "type": "uint256"
        },
        {
          "internalType": "uint256",
          "name": "quantity",
          "type": "uint256"
        },
        {
          "internalType": "string",
          "name": "pickupPlace",
          "type": "string"
        },
        {
          "internalType": "string",
          "name": "destinationPlace",
          "type": "string"
        },
        {
          "internalType": "address",
          "name": "recipientAddress",
          "type": "address"
        }
      ],
      "name": "createProduct",
      "outputs": [],
      "stateMutability": "nonpayable",
      "type": "function"
    },
    {
      "inputs": [],
      "name": "deposit",
      "outputs": [],
      "stateMutability": "payable",
      "type": "function"
    },
    {
      "inputs": [
        {
          "internalType": "address",
          "name": "",
          "type": "address"
        },
        {
          "internalType": "uint256",
          "name": "",
          "type": "uint256"
        }
      ],
      "name": "enterpriseProducts",
      "outputs": [
        {
          "internalType": "string",
          "name": "name",
          "type": "string"
        },
        {
          "internalType": "uint256",
          "name": "Price",
          "type": "uint256"
        },
        {
          "internalType": "uint256",
          "name": "quantity",
          "type": "uint256"
        },
        {
          "internalType": "string",
          "name": "pickupPlace",
          "type": "string"
        },
        {
          "internalType": "string",
          "name": "destinationPlace",
          "type": "string"
        },
        {
          "internalType": "address",
          "name": "recipientAddress",
          "type": "address"
        },
        {
          "internalType": "bool",
          "name": "isDelivered",
          "type": "bool"
        }
      ],
      "stateMutability": "view",
      "type": "function"
    },
    {
      "inputs": [
        {
          "internalType": "address",
          "name": "",
          "type": "address"
        }
      ],
      "name": "enterprises",
      "outputs": [
        {
          "internalType": "string",
          "name": "name",
          "type": "string"
        },
        {
          "internalType": "string",
          "name": "businessDetails",
          "type": "string"
        },
        {
          "internalType": "string",
          "name": "govAuthorizedID",
          "type": "string"
        },
        {
          "internalType": "bool",
          "name": "isRegistered",
          "type": "bool"
        },
        {
          "internalType": "bool",
          "name": "hasClaimedTokens",
          "type": "bool"
        },
        {
          "internalType": "uint256",
          "name": "balance",
          "type": "uint256"
        }
      ],
      "stateMutability": "view",
      "type": "function"
    },
    {
      "inputs": [],
      "name": "getContractBalance",
      "outputs": [
        {
          "internalType": "uint256",
          "name": "",
          "type": "uint256"
        }
      ],
      "stateMutability": "view",
      "type": "function"
    },
    {
      "inputs": [],
      "name": "platformFeesCollected",
      "outputs": [
        {
          "internalType": "uint256",
          "name": "",
          "type": "uint256"
        }
      ],
      "stateMutability": "view",
      "type": "function"
    },
    {
      "inputs": [
        {
          "internalType": "address",
          "name": "",
          "type": "address"
        }
      ],
      "name": "recipients",
      "outputs": [
        {
          "internalType": "string",
          "name": "name",
          "type": "string"
        },
        {
          "internalType": "string",
          "name": "placeOfBusiness",
          "type": "string"
        },
        {
          "internalType": "string",
          "name": "govAuthorizedID",
          "type": "string"
        },
        {
          "internalType": "bool",
          "name": "isRegistered",
          "type": "bool"
        },
        {
          "internalType": "bool",
          "name": "hasClaimedTokens",
          "type": "bool"
        }
      ],
      "stateMutability": "view",
      "type": "function"
    },
    {
      "inputs": [
        {
          "internalType": "string",
          "name": "name",
          "type": "string"
        },
        {
          "internalType": "string",
          "name": "businessDetails",
          "type": "string"
        },
        {
          "internalType": "string",
          "name": "govAuthorizedID",
          "type": "string"
        }
      ],
      "name": "registerEnterprise",
      "outputs": [],
      "stateMutability": "nonpayable",
      "type": "function"
    },
    {
      "inputs": [
        {
          "internalType": "string",
          "name": "name",
          "type": "string"
        },
        {
          "internalType": "string",
          "name": "placeOfBusiness",
          "type": "string"
        },
        {
          "internalType": "string",
          "name": "govAuthorizedID",
          "type": "string"
        }
      ],
      "name": "registerRecipient",
      "outputs": [],
      "stateMutability": "nonpayable",
      "type": "function"
    },
    {
      "inputs": [],
      "name": "tokenRewardAmount",
      "outputs": [
        {
          "internalType": "uint256",
          "name": "",
          "type": "uint256"
        }
      ],
      "stateMutability": "view",
      "type": "function"
    },
    {
      "inputs": [],
      "name": "withdrawPlatformFees",
      "outputs": [],
      "stateMutability": "nonpayable",
      "type": "function"
    }
  ],
  "bytecode": "0x608060405234801561001057600080fd5b5033600460006101000a81548173ffffffffffffffffffffffffffffffffffffffff021916908373ffffffffffffffffffffffffffffffffffffffff160217905550612544806100616000396000f3fe6080604052600436106100c25760003560e01c8063947c1cb91161007f578063d0b7830b11610059578063d0b7830b1461025f578063d0e30db014610276578063eb82031214610280578063ec1e9857146102c1576100c2565b8063947c1cb9146101e05780639c642d5d14610209578063b36ffca614610234576100c2565b8063016ca209146100c757806336c0c150146100f057806341b1991f1461013357806348c54b9d1461015c5780636f9fb98a14610173578063902e11b61461019e575b600080fd5b3480156100d357600080fd5b506100ee60048036038101906100e991906117cc565b6102ea565b005b3480156100fc57600080fd5b5061011760048036038101906101129190611907565b610470565b60405161012a97969594939291906119ff565b60405180910390f35b34801561013f57600080fd5b5061015a60048036038101906101559190611a83565b610694565b005b34801561016857600080fd5b50610171610abb565b005b34801561017f57600080fd5b50610188610db1565b6040516101959190611b64565b60405180910390f35b3480156101aa57600080fd5b506101c560048036038101906101c09190611b7f565b610db9565b6040516101d796959493929190611bac565b60405180910390f35b3480156101ec57600080fd5b50610207600480360381019061020291906117cc565b610fa7565b005b34801561021557600080fd5b5061021e61113c565b60405161022b9190611b64565b60405180910390f35b34801561024057600080fd5b50610249611149565b6040516102569190611b64565b60405180910390f35b34801561026b57600080fd5b5061027461114f565b005b61027e611254565b005b34801561028c57600080fd5b506102a760048036038101906102a29190611b7f565b6112ae565b6040516102b8959493929190611c22565b60405180910390f35b3480156102cd57600080fd5b506102e860048036038101906102e39190611907565b611496565b005b600160003373ffffffffffffffffffffffffffffffffffffffff1673ffffffffffffffffffffffffffffffffffffffff16815260200190815260200160002060030160009054906101000a900460ff161561037a576040517f08c379a000000000000000000000000000000000000000000000000000000000815260040161037190611cd6565b60405180910390fd5b6040518060a0016040528084815260200183815260200182815260200160011515815260200160001515815250600160003373ffffffffffffffffffffffffffffffffffffffff1673ffffffffffffffffffffffffffffffffffffffff16815260200190815260200160002060008201518160000190816103fb9190611f02565b5060208201518160010190816104119190611f02565b5060408201518160020190816104279190611f02565b5060608201518160030160006101000a81548160ff02191690831515021790555060808201518160030160016101000a81548160ff021916908315150217905550905050505050565b6002602052816000526040600020818154811061048c57600080fd5b9060005260206000209060060201600091509150508060000180546104b090611d25565b80601f01602080910402602001604051908101604052809291908181526020018280546104dc90611d25565b80156105295780601f106104fe57610100808354040283529160200191610529565b820191906000526020600020905b81548152906001019060200180831161050c57829003601f168201915b50505050509080600101549080600201549080600301805461054a90611d25565b80601f016020809104026020016040519081016040528092919081815260200182805461057690611d25565b80156105c35780601f10610598576101008083540402835291602001916105c3565b820191906000526020600020905b8154815290600101906020018083116105a657829003601f168201915b5050505050908060040180546105d890611d25565b80601f016020809104026020016040519081016040528092919081815260200182805461060490611d25565b80156106515780601f1061062657610100808354040283529160200191610651565b820191906000526020600020905b81548152906001019060200180831161063457829003601f168201915b5050505050908060050160009054906101000a900473ffffffffffffffffffffffffffffffffffffffff16908060050160149054906101000a900460ff16905087565b6000803373ffffffffffffffffffffffffffffffffffffffff1673ffffffffffffffffffffffffffffffffffffffff16815260200190815260200160002060030160009054906101000a900460ff16610722576040517f08c379a000000000000000000000000000000000000000000000000000000000815260040161071990612020565b60405180910390fd5b600160008273ffffffffffffffffffffffffffffffffffffffff1673ffffffffffffffffffffffffffffffffffffffff16815260200190815260200160002060030160009054906101000a900460ff166107b1576040517f08c379a00000000000000000000000000000000000000000000000000000000081526004016107a89061208c565b60405180910390fd5b6000670de0b6b3a764000085876107c891906120db565b6107d291906120db565b90506000803373ffffffffffffffffffffffffffffffffffffffff1673ffffffffffffffffffffffffffffffffffffffff16815260200190815260200160002060040154811115610858576040517f08c379a000000000000000000000000000000000000000000000000000000000815260040161084f9061218f565b60405180910390fd5b6000606460028361086991906120db565b61087391906121de565b905060008183610883919061220f565b905081600360008282546108979190612243565b92505081905550600260003373ffffffffffffffffffffffffffffffffffffffff1673ffffffffffffffffffffffffffffffffffffffff1681526020019081526020016000206040518060e001604052808b81526020018a81526020018981526020018881526020018781526020018673ffffffffffffffffffffffffffffffffffffffff16815260200160001515815250908060018154018082558091505060019003906000526020600020906006020160009091909190915060008201518160000190816109679190611f02565b50602082015181600101556040820151816002015560608201518160030190816109919190611f02565b5060808201518160040190816109a79190611f02565b5060a08201518160050160006101000a81548173ffffffffffffffffffffffffffffffffffffffff021916908373ffffffffffffffffffffffffffffffffffffffff16021790555060c08201518160050160146101000a81548160ff02191690831515021790555050503373ffffffffffffffffffffffffffffffffffffffff166108fc829081150290604051600060405180830381858888f19350505050158015610a57573d6000803e3d6000fd5b50806000803373ffffffffffffffffffffffffffffffffffffffff1673ffffffffffffffffffffffffffffffffffffffff1681526020019081526020016000206004016000828254610aa9919061220f565b92505081905550505050505050505050565b6000803373ffffffffffffffffffffffffffffffffffffffff1673ffffffffffffffffffffffffffffffffffffffff16815260200190815260200160002060030160009054906101000a900460ff168015610b6257506000803373ffffffffffffffffffffffffffffffffffffffff1673ffffffffffffffffffffffffffffffffffffffff16815260200190815260200160002060030160019054906101000a900460ff16155b15610c165760016000803373ffffffffffffffffffffffffffffffffffffffff1673ffffffffffffffffffffffffffffffffffffffff16815260200190815260200160002060030160016101000a81548160ff0219169083151502179055503373ffffffffffffffffffffffffffffffffffffffff166108fc683635c9adc5dea000009081150290604051600060405180830381858888f19350505050158015610c10573d6000803e3d6000fd5b50610daf565b600160003373ffffffffffffffffffffffffffffffffffffffff1673ffffffffffffffffffffffffffffffffffffffff16815260200190815260200160002060030160009054906101000a900460ff168015610cbf5750600160003373ffffffffffffffffffffffffffffffffffffffff1673ffffffffffffffffffffffffffffffffffffffff16815260200190815260200160002060030160019054906101000a900460ff16155b15610d735760018060003373ffffffffffffffffffffffffffffffffffffffff1673ffffffffffffffffffffffffffffffffffffffff16815260200190815260200160002060030160016101000a81548160ff0219169083151502179055503373ffffffffffffffffffffffffffffffffffffffff166108fc683635c9adc5dea000009081150290604051600060405180830381858888f19350505050158015610d6d573d6000803e3d6000fd5b50610dae565b6040517f08c379a0000000000000000000000000000000000000000000000000000000008152600401610da5906122e9565b60405180910390fd5b5b565b600047905090565b6000602052806000526040600020600091509050806000018054610ddc90611d25565b80601f0160208091040260200160405190810160405280929190818152602001828054610e0890611d25565b8015610e555780601f10610e2a57610100808354040283529160200191610e55565b820191906000526020600020905b815481529060010190602001808311610e3857829003601f168201915b505050505090806001018054610e6a90611d25565b80601f0160208091040260200160405190810160405280929190818152602001828054610e9690611d25565b8015610ee35780601f10610eb857610100808354040283529160200191610ee3565b820191906000526020600020905b815481529060010190602001808311610ec657829003601f168201915b505050505090806002018054610ef890611d25565b80601f0160208091040260200160405190810160405280929190818152602001828054610f2490611d25565b8015610f715780601f10610f4657610100808354040283529160200191610f71565b820191906000526020600020905b815481529060010190602001808311610f5457829003601f168201915b5050505050908060030160009054906101000a900460ff16908060030160019054906101000a900460ff16908060040154905086565b6000803373ffffffffffffffffffffffffffffffffffffffff1673ffffffffffffffffffffffffffffffffffffffff16815260200190815260200160002060030160009054906101000a900460ff1615611036576040517f08c379a000000000000000000000000000000000000000000000000000000000815260040161102d90612355565b60405180910390fd5b6040518060c0016040528084815260200183815260200182815260200160011515815260200160001515815260200160008152506000803373ffffffffffffffffffffffffffffffffffffffff1673ffffffffffffffffffffffffffffffffffffffff16815260200190815260200160002060008201518160000190816110bd9190611f02565b5060208201518160010190816110d39190611f02565b5060408201518160020190816110e99190611f02565b5060608201518160030160006101000a81548160ff02191690831515021790555060808201518160030160016101000a81548160ff02191690831515021790555060a08201518160040155905050505050565b683635c9adc5dea0000081565b60035481565b600460009054906101000a900473ffffffffffffffffffffffffffffffffffffffff1673ffffffffffffffffffffffffffffffffffffffff163373ffffffffffffffffffffffffffffffffffffffff16146111df576040517f08c379a00000000000000000000000000000000000000000000000000000000081526004016111d6906123e7565b60405180910390fd5b600460009054906101000a900473ffffffffffffffffffffffffffffffffffffffff1673ffffffffffffffffffffffffffffffffffffffff166108fc6003549081150290604051600060405180830381858888f19350505050158015611249573d6000803e3d6000fd5b506000600381905550565b346000803373ffffffffffffffffffffffffffffffffffffffff1673ffffffffffffffffffffffffffffffffffffffff16815260200190815260200160002060040160008282546112a59190612243565b92505081905550565b60016020528060005260406000206000915090508060000180546112d190611d25565b80601f01602080910402602001604051908101604052809291908181526020018280546112fd90611d25565b801561134a5780601f1061131f5761010080835404028352916020019161134a565b820191906000526020600020905b81548152906001019060200180831161132d57829003601f168201915b50505050509080600101805461135f90611d25565b80601f016020809104026020016040519081016040528092919081815260200182805461138b90611d25565b80156113d85780601f106113ad576101008083540402835291602001916113d8565b820191906000526020600020905b8154815290600101906020018083116113bb57829003601f168201915b5050505050908060020180546113ed90611d25565b80601f016020809104026020016040519081016040528092919081815260200182805461141990611d25565b80156114665780601f1061143b57610100808354040283529160200191611466565b820191906000526020600020905b81548152906001019060200180831161144957829003601f168201915b5050505050908060030160009054906101000a900460ff16908060030160019054906101000a900460ff16905085565b6000600260008473ffffffffffffffffffffffffffffffffffffffff1673ffffffffffffffffffffffffffffffffffffffff16815260200190815260200160002082815481106114e9576114e8612407565b5b906000526020600020906006020190508060050160149054906101000a900460ff161561154b576040517f08c379a000000000000000000000000000000000000000000000000000000000815260040161154290612482565b60405180910390fd5b8060050160009054906101000a900473ffffffffffffffffffffffffffffffffffffffff1673ffffffffffffffffffffffffffffffffffffffff163373ffffffffffffffffffffffffffffffffffffffff16146115dd576040517f08c379a00000000000000000000000000000000000000000000000000000000081526004016115d4906124ee565b60405180910390fd5b60018160050160146101000a81548160ff0219169083151502179055506000670de0b6b3a76400008260020154836001015461161991906120db565b61162391906120db565b90508373ffffffffffffffffffffffffffffffffffffffff166108fc829081150290604051600060405180830381858888f1935050505015801561166b573d6000803e3d6000fd5b5050505050565b6000604051905090565b600080fd5b600080fd5b600080fd5b600080fd5b6000601f19601f8301169050919050565b7f4e487b7100000000000000000000000000000000000000000000000000000000600052604160045260246000fd5b6116d982611690565b810181811067ffffffffffffffff821117156116f8576116f76116a1565b5b80604052505050565b600061170b611672565b905061171782826116d0565b919050565b600067ffffffffffffffff821115611737576117366116a1565b5b61174082611690565b9050602081019050919050565b82818337600083830152505050565b600061176f61176a8461171c565b611701565b90508281526020810184848401111561178b5761178a61168b565b5b61179684828561174d565b509392505050565b600082601f8301126117b3576117b2611686565b5b81356117c384826020860161175c565b91505092915050565b6000806000606084860312156117e5576117e461167c565b5b600084013567ffffffffffffffff81111561180357611802611681565b5b61180f8682870161179e565b935050602084013567ffffffffffffffff8111156118305761182f611681565b5b61183c8682870161179e565b925050604084013567ffffffffffffffff81111561185d5761185c611681565b5b6118698682870161179e565b9150509250925092565b600073ffffffffffffffffffffffffffffffffffffffff82169050919050565b600061189e82611873565b9050919050565b6118ae81611893565b81146118b957600080fd5b50565b6000813590506118cb816118a5565b92915050565b6000819050919050565b6118e4816118d1565b81146118ef57600080fd5b50565b600081359050611901816118db565b92915050565b6000806040838503121561191e5761191d61167c565b5b600061192c858286016118bc565b925050602061193d858286016118f2565b9150509250929050565b600081519050919050565b600082825260208201905092915050565b60005b83811015611981578082015181840152602081019050611966565b60008484015250505050565b600061199882611947565b6119a28185611952565b93506119b2818560208601611963565b6119bb81611690565b840191505092915050565b6119cf816118d1565b82525050565b6119de81611893565b82525050565b60008115159050919050565b6119f9816119e4565b82525050565b600060e0820190508181036000830152611a19818a61198d565b9050611a2860208301896119c6565b611a3560408301886119c6565b8181036060830152611a47818761198d565b90508181036080830152611a5b818661198d565b9050611a6a60a08301856119d5565b611a7760c08301846119f0565b98975050505050505050565b60008060008060008060c08789031215611aa057611a9f61167c565b5b600087013567ffffffffffffffff811115611abe57611abd611681565b5b611aca89828a0161179e565b9650506020611adb89828a016118f2565b9550506040611aec89828a016118f2565b945050606087013567ffffffffffffffff811115611b0d57611b0c611681565b5b611b1989828a0161179e565b935050608087013567ffffffffffffffff811115611b3a57611b39611681565b5b611b4689828a0161179e565b92505060a0611b5789828a016118bc565b9150509295509295509295565b6000602082019050611b7960008301846119c6565b92915050565b600060208284031215611b9557611b9461167c565b5b6000611ba3848285016118bc565b91505092915050565b600060c0820190508181036000830152611bc6818961198d565b90508181036020830152611bda818861198d565b90508181036040830152611bee818761198d565b9050611bfd60608301866119f0565b611c0a60808301856119f0565b611c1760a08301846119c6565b979650505050505050565b600060a0820190508181036000830152611c3c818861198d565b90508181036020830152611c50818761198d565b90508181036040830152611c64818661198d565b9050611c7360608301856119f0565b611c8060808301846119f0565b9695505050505050565b7f526563697069656e7420697320616c7265616479207265676973746572656400600082015250565b6000611cc0601f83611952565b9150611ccb82611c8a565b602082019050919050565b60006020820190508181036000830152611cef81611cb3565b9050919050565b7f4e487b7100000000000000000000000000000000000000000000000000000000600052602260045260246000fd5b60006002820490506001821680611d3d57607f821691505b602082108103611d5057611d4f611cf6565b5b50919050565b60008190508160005260206000209050919050565b60006020601f8301049050919050565b600082821b905092915050565b600060088302611db87fffffffffffffffffffffffffffffffffffffffffffffffffffffffffffffffff82611d7b565b611dc28683611d7b565b95508019841693508086168417925050509392505050565b6000819050919050565b6000611dff611dfa611df5846118d1565b611dda565b6118d1565b9050919050565b6000819050919050565b611e1983611de4565b611e2d611e2582611e06565b848454611d88565b825550505050565b600090565b611e42611e35565b611e4d818484611e10565b505050565b5b81811015611e7157611e66600082611e3a565b600181019050611e53565b5050565b601f821115611eb657611e8781611d56565b611e9084611d6b565b81016020851015611e9f578190505b611eb3611eab85611d6b565b830182611e52565b50505b505050565b600082821c905092915050565b6000611ed960001984600802611ebb565b1980831691505092915050565b6000611ef28383611ec8565b9150826002028217905092915050565b611f0b82611947565b67ffffffffffffffff811115611f2457611f236116a1565b5b611f2e8254611d25565b611f39828285611e75565b600060209050601f831160018114611f6c5760008415611f5a578287015190505b611f648582611ee6565b865550611fcc565b601f198416611f7a86611d56565b60005b82811015611fa257848901518255600182019150602085019450602081019050611f7d565b86831015611fbf5784890151611fbb601f891682611ec8565b8355505b6001600288020188555050505b505050505050565b7f456e7465727072697365206973206e6f74207265676973746572656400000000600082015250565b600061200a601c83611952565b915061201582611fd4565b602082019050919050565b6000602082019050818103600083015261203981611ffd565b9050919050565b7f526563697069656e74206973206e6f7420726567697374657265640000000000600082015250565b6000612076601b83611952565b915061208182612040565b602082019050919050565b600060208201905081810360008301526120a581612069565b9050919050565b7f4e487b7100000000000000000000000000000000000000000000000000000000600052601160045260246000fd5b60006120e6826118d1565b91506120f1836118d1565b92508282026120ff816118d1565b91508282048414831517612116576121156120ac565b5b5092915050565b7f496e73756666696369656e742062616c616e636520666f7220746f74616c207060008201527f61796d656e740000000000000000000000000000000000000000000000000000602082015250565b6000612179602683611952565b91506121848261211d565b604082019050919050565b600060208201905081810360008301526121a88161216c565b9050919050565b7f4e487b7100000000000000000000000000000000000000000000000000000000600052601260045260246000fd5b60006121e9826118d1565b91506121f4836118d1565b925082612204576122036121af565b5b828204905092915050565b600061221a826118d1565b9150612225836118d1565b925082820390508181111561223d5761223c6120ac565b5b92915050565b600061224e826118d1565b9150612259836118d1565b9250828201905080821115612271576122706120ac565b5b92915050565b7f546f6b656e7320616c726561647920636c61696d6564206f722073656e64657260008201527f206973206e6f7420726567697374657265640000000000000000000000000000602082015250565b60006122d3603283611952565b91506122de82612277565b604082019050919050565b60006020820190508181036000830152612302816122c6565b9050919050565b7f456e746572707269736520697320616c72656164792072656769737465726564600082015250565b600061233f602083611952565b915061234a82612309565b602082019050919050565b6000602082019050818103600083015261236e81612332565b9050919050565b7f4f6e6c792074686520636f6e7472616374206f776e65722063616e207769746860008201527f6472617720706c6174666f726d20666565730000000000000000000000000000602082015250565b60006123d1603283611952565b91506123dc82612375565b604082019050919050565b60006020820190508181036000830152612400816123c4565b9050919050565b7f4e487b7100000000000000000000000000000000000000000000000000000000600052603260045260246000fd5b7f50726f6475637420616c72656164792064656c69766572656400000000000000600082015250565b600061246c601983611952565b915061247782612436565b602082019050919050565b6000602082019050818103600083015261249b8161245f565b9050919050565b7f556e617574686f72697a656420726563697069656e7400000000000000000000600082015250565b60006124d8601683611952565b91506124e3826124a2565b602082019050919050565b60006020820190508181036000830152612507816124cb565b905091905056fea2646970667358221220cf21ec15f2ae8d52f0877a4f8775150dcfc90f51157420bf73516898315de15864736f6c63430008120033",
  "linkReferences": {},
  "deployedLinkReferences": {}
}