{
  "_format": "hh-sol-artifact-1",
  "contractName": "BitLogixNFT",
  "sourceName": "contracts/BitLogixNFT.sol",
  "abi": [
    {
      "inputs": [
        {
          "internalType": "string",
          "name": "baseURI",
          "type": "string"
        }
      ],
      "stateMutability": "nonpayable",
      "type": "constructor"
    },
    {
      "anonymous": false,
      "inputs": [
        {
          "indexed": true,
          "internalType": "address",
          "name": "owner",
          "type": "address"
        },
        {
          "indexed": true,
          "internalType": "address",
          "name": "approved",
          "type": "address"
        },
        {
          "indexed": true,
          "internalType": "uint256",
          "name": "tokenId",
          "type": "uint256"
        }
      ],
      "name": "Approval",
      "type": "event"
    },
    {
      "anonymous": false,
      "inputs": [
        {
          "indexed": true,
          "internalType": "address",
          "name": "owner",
          "type": "address"
        },
        {
          "indexed": true,
          "internalType": "address",
          "name": "operator",
          "type": "address"
        },
        {
          "indexed": false,
          "internalType": "bool",
          "name": "approved",
          "type": "bool"
        }
      ],
      "name": "ApprovalForAll",
      "type": "event"
    },
    {
      "anonymous": false,
      "inputs": [
        {
          "indexed": true,
          "internalType": "address",
          "name": "previousOwner",
          "type": "address"
        },
        {
          "indexed": true,
          "internalType": "address",
          "name": "newOwner",
          "type": "address"
        }
      ],
      "name": "OwnershipTransferred",
      "type": "event"
    },
    {
      "anonymous": false,
      "inputs": [
        {
          "indexed": true,
          "internalType": "address",
          "name": "from",
          "type": "address"
        },
        {
          "indexed": true,
          "internalType": "address",
          "name": "to",
          "type": "address"
        },
        {
          "indexed": true,
          "internalType": "uint256",
          "name": "tokenId",
          "type": "uint256"
        }
      ],
      "name": "Transfer",
      "type": "event"
    },
    {
      "inputs": [
        {
          "internalType": "address",
          "name": "to",
          "type": "address"
        },
        {
          "internalType": "uint256",
          "name": "tokenId",
          "type": "uint256"
        }
      ],
      "name": "approve",
      "outputs": [],
      "stateMutability": "nonpayable",
      "type": "function"
    },
    {
      "inputs": [
        {
          "internalType": "address",
          "name": "owner",
          "type": "address"
        }
      ],
      "name": "balanceOf",
      "outputs": [
        {
          "internalType": "uint256",
          "name": "",
          "type": "uint256"
        }
      ],
      "stateMutability": "view",
      "type": "function"
    },
    {
      "inputs": [
        {
          "internalType": "uint256",
          "name": "tokenId",
          "type": "uint256"
        }
      ],
      "name": "getApproved",
      "outputs": [
        {
          "internalType": "address",
          "name": "",
          "type": "address"
        }
      ],
      "stateMutability": "view",
      "type": "function"
    },
    {
      "inputs": [
        {
          "internalType": "address",
          "name": "owner",
          "type": "address"
        },
        {
          "internalType": "address",
          "name": "operator",
          "type": "address"
        }
      ],
      "name": "isApprovedForAll",
      "outputs": [
        {
          "internalType": "bool",
          "name": "",
          "type": "bool"
        }
      ],
      "stateMutability": "view",
      "type": "function"
    },
    {
      "inputs": [
        {
          "internalType": "address",
          "name": "to",
          "type": "address"
        },
        {
          "internalType": "string",
          "name": "ipfsURI",
          "type": "string"
        }
      ],
      "name": "mintNFT",
      "outputs": [],
      "stateMutability": "nonpayable",
      "type": "function"
    },
    {
      "inputs": [],
      "name": "name",
      "outputs": [
        {
          "internalType": "string",
          "name": "",
          "type": "string"
        }
      ],
      "stateMutability": "view",
      "type": "function"
    },
    {
      "inputs": [],
      "name": "owner",
      "outputs": [
        {
          "internalType": "address",
          "name": "",
          "type": "address"
        }
      ],
      "stateMutability": "view",
      "type": "function"
    },
    {
      "inputs": [
        {
          "internalType": "uint256",
          "name": "tokenId",
          "type": "uint256"
        }
      ],
      "name": "ownerOf",
      "outputs": [
        {
          "internalType": "address",
          "name": "",
          "type": "address"
        }
      ],
      "stateMutability": "view",
      "type": "function"
    },
    {
      "inputs": [],
      "name": "renounceOwnership",
      "outputs": [],
      "stateMutability": "nonpayable",
      "type": "function"
    },
    {
      "inputs": [
        {
          "internalType": "address",
          "name": "from",
          "type": "address"
        },
        {
          "internalType": "address",
          "name": "to",
          "type": "address"
        },
        {
          "internalType": "uint256",
          "name": "tokenId",
          "type": "uint256"
        }
      ],
      "name": "safeTransferFrom",
      "outputs": [],
      "stateMutability": "nonpayable",
      "type": "function"
    },
    {
      "inputs": [
        {
          "internalType": "address",
          "name": "from",
          "type": "address"
        },
        {
          "internalType": "address",
          "name": "to",
          "type": "address"
        },
        {
          "internalType": "uint256",
          "name": "tokenId",
          "type": "uint256"
        },
        {
          "internalType": "bytes",
          "name": "data",
          "type": "bytes"
        }
      ],
      "name": "safeTransferFrom",
      "outputs": [],
      "stateMutability": "nonpayable",
      "type": "function"
    },
    {
      "inputs": [
        {
          "internalType": "address",
          "name": "operator",
          "type": "address"
        },
        {
          "internalType": "bool",
          "name": "approved",
          "type": "bool"
        }
      ],
      "name": "setApprovalForAll",
      "outputs": [],
      "stateMutability": "nonpayable",
      "type": "function"
    },
    {
      "inputs": [
        {
          "internalType": "string",
          "name": "newBaseURI",
          "type": "string"
        }
      ],
      "name": "setBaseURI",
      "outputs": [],
      "stateMutability": "nonpayable",
      "type": "function"
    },
    {
      "inputs": [
        {
          "internalType": "bytes4",
          "name": "interfaceId",
          "type": "bytes4"
        }
      ],
      "name": "supportsInterface",
      "outputs": [
        {
          "internalType": "bool",
          "name": "",
          "type": "bool"
        }
      ],
      "stateMutability": "view",
      "type": "function"
    },
    {
      "inputs": [],
      "name": "symbol",
      "outputs": [
        {
          "internalType": "string",
          "name": "",
          "type": "string"
        }
      ],
      "stateMutability": "view",
      "type": "function"
    },
    {
      "inputs": [
        {
          "internalType": "uint256",
          "name": "tokenId",
          "type": "uint256"
        }
      ],
      "name": "tokenURI",
      "outputs": [
        {
          "internalType": "string",
          "name": "",
          "type": "string"
        }
      ],
      "stateMutability": "view",
      "type": "function"
    },
    {
      "inputs": [
        {
          "internalType": "address",
          "name": "from",
          "type": "address"
        },
        {
          "internalType": "address",
          "name": "to",
          "type": "address"
        },
        {
          "internalType": "uint256",
          "name": "tokenId",
          "type": "uint256"
        }
      ],
      "name": "transferFrom",
      "outputs": [],
      "stateMutability": "nonpayable",
      "type": "function"
    },
    {
      "inputs": [
        {
          "internalType": "address",
          "name": "newOwner",
          "type": "address"
        }
      ],
      "name": "transferOwnership",
      "outputs": [],
      "stateMutability": "nonpayable",
      "type": "function"
    }
  ],
  "bytecode": "0x60806040523480156200001157600080fd5b50604051620033633803806200336383398181016040528101906200003791906200036b565b6040518060400160405280600b81526020017f4269744c6f6769784e46540000000000000000000000000000000000000000008152506040518060400160405280600681526020017f424c4f47495800000000000000000000000000000000000000000000000000008152508160009081620000b4919062000607565b508060019081620000c6919062000607565b505050620000e9620000dd6200010a60201b60201c565b6200011260201b60201c565b8060079081620000fa919062000607565b50600060088190555050620006ee565b600033905090565b6000600660009054906101000a900473ffffffffffffffffffffffffffffffffffffffff16905081600660006101000a81548173ffffffffffffffffffffffffffffffffffffffff021916908373ffffffffffffffffffffffffffffffffffffffff1602179055508173ffffffffffffffffffffffffffffffffffffffff168173ffffffffffffffffffffffffffffffffffffffff167f8be0079c531659141344cd1fd0a4f28419497f9722a3daafe3b4186f6b6457e060405160405180910390a35050565b6000604051905090565b600080fd5b600080fd5b600080fd5b600080fd5b6000601f19601f8301169050919050565b7f4e487b7100000000000000000000000000000000000000000000000000000000600052604160045260246000fd5b6200024182620001f6565b810181811067ffffffffffffffff8211171562000263576200026262000207565b5b80604052505050565b600062000278620001d8565b905062000286828262000236565b919050565b600067ffffffffffffffff821115620002a957620002a862000207565b5b620002b482620001f6565b9050602081019050919050565b60005b83811015620002e1578082015181840152602081019050620002c4565b60008484015250505050565b600062000304620002fe846200028b565b6200026c565b905082815260208101848484011115620003235762000322620001f1565b5b62000330848285620002c1565b509392505050565b600082601f83011262000350576200034f620001ec565b5b815162000362848260208601620002ed565b91505092915050565b600060208284031215620003845762000383620001e2565b5b600082015167ffffffffffffffff811115620003a557620003a4620001e7565b5b620003b38482850162000338565b91505092915050565b600081519050919050565b7f4e487b7100000000000000000000000000000000000000000000000000000000600052602260045260246000fd5b600060028204905060018216806200040f57607f821691505b602082108103620004255762000424620003c7565b5b50919050565b60008190508160005260206000209050919050565b60006020601f8301049050919050565b600082821b905092915050565b6000600883026200048f7fffffffffffffffffffffffffffffffffffffffffffffffffffffffffffffffff8262000450565b6200049b868362000450565b95508019841693508086168417925050509392505050565b6000819050919050565b6000819050919050565b6000620004e8620004e2620004dc84620004b3565b620004bd565b620004b3565b9050919050565b6000819050919050565b6200050483620004c7565b6200051c6200051382620004ef565b8484546200045d565b825550505050565b600090565b6200053362000524565b62000540818484620004f9565b505050565b5b8181101562000568576200055c60008262000529565b60018101905062000546565b5050565b601f821115620005b75762000581816200042b565b6200058c8462000440565b810160208510156200059c578190505b620005b4620005ab8562000440565b83018262000545565b50505b505050565b600082821c905092915050565b6000620005dc60001984600802620005bc565b1980831691505092915050565b6000620005f78383620005c9565b9150826002028217905092915050565b6200061282620003bc565b67ffffffffffffffff8111156200062e576200062d62000207565b5b6200063a8254620003f6565b620006478282856200056c565b600060209050601f8311600181146200067f57600084156200066a578287015190505b620006768582620005e9565b865550620006e6565b601f1984166200068f866200042b565b60005b82811015620006b95784890151825560018201915060208501945060208101905062000692565b86831015620006d95784890151620006d5601f891682620005c9565b8355505b6001600288020188555050505b505050505050565b612c6580620006fe6000396000f3fe608060405234801561001057600080fd5b50600436106101165760003560e01c8063715018a6116100a2578063b88d4fde11610071578063b88d4fde146102cb578063c87b56dd146102e7578063e985e9c514610317578063eacabe1414610347578063f2fde38b1461036357610116565b8063715018a6146102695780638da5cb5b1461027357806395d89b4114610291578063a22cb465146102af57610116565b806323b872dd116100e957806323b872dd146101b557806342842e0e146101d157806355f804b3146101ed5780636352211e1461020957806370a082311461023957610116565b806301ffc9a71461011b57806306fdde031461014b578063081812fc14610169578063095ea7b314610199575b600080fd5b61013560048036038101906101309190611993565b61037f565b60405161014291906119db565b60405180910390f35b610153610461565b6040516101609190611a86565b60405180910390f35b610183600480360381019061017e9190611ade565b6104f3565b6040516101909190611b4c565b60405180910390f35b6101b360048036038101906101ae9190611b93565b610539565b005b6101cf60048036038101906101ca9190611bd3565b610650565b005b6101eb60048036038101906101e69190611bd3565b6106b0565b005b61020760048036038101906102029190611d5b565b6106d0565b005b610223600480360381019061021e9190611ade565b6106e3565b6040516102309190611b4c565b60405180910390f35b610253600480360381019061024e9190611da4565b610769565b6040516102609190611de0565b60405180910390f35b610271610820565b005b61027b610834565b6040516102889190611b4c565b60405180910390f35b61029961085e565b6040516102a69190611a86565b60405180910390f35b6102c960048036038101906102c49190611e27565b6108f0565b005b6102e560048036038101906102e09190611f08565b610906565b005b61030160048036038101906102fc9190611ade565b610968565b60405161030e9190611a86565b60405180910390f35b610331600480360381019061032c9190611f8b565b610b50565b60405161033e91906119db565b60405180910390f35b610361600480360381019061035c9190611fcb565b610be4565b005b61037d60048036038101906103789190611da4565b610c1e565b005b60007f80ac58cd000000000000000000000000000000000000000000000000000000007bffffffffffffffffffffffffffffffffffffffffffffffffffffffff1916827bffffffffffffffffffffffffffffffffffffffffffffffffffffffff1916148061044a57507f5b5e139f000000000000000000000000000000000000000000000000000000007bffffffffffffffffffffffffffffffffffffffffffffffffffffffff1916827bffffffffffffffffffffffffffffffffffffffffffffffffffffffff1916145b8061045a575061045982610ca1565b5b9050919050565b60606000805461047090612056565b80601f016020809104026020016040519081016040528092919081815260200182805461049c90612056565b80156104e95780601f106104be576101008083540402835291602001916104e9565b820191906000526020600020905b8154815290600101906020018083116104cc57829003601f168201915b5050505050905090565b60006104fe82610d0b565b6004600083815260200190815260200160002060009054906101000a900473ffffffffffffffffffffffffffffffffffffffff169050919050565b6000610544826106e3565b90508073ffffffffffffffffffffffffffffffffffffffff168373ffffffffffffffffffffffffffffffffffffffff16036105b4576040517f08c379a00000000000000000000000000000000000000000000000000000000081526004016105ab906120f9565b60405180910390fd5b8073ffffffffffffffffffffffffffffffffffffffff166105d3610d56565b73ffffffffffffffffffffffffffffffffffffffff1614806106025750610601816105fc610d56565b610b50565b5b610641576040517f08c379a00000000000000000000000000000000000000000000000000000000081526004016106389061218b565b60405180910390fd5b61064b8383610d5e565b505050565b61066161065b610d56565b82610e17565b6106a0576040517f08c379a00000000000000000000000000000000000000000000000000000000081526004016106979061221d565b60405180910390fd5b6106ab838383610eac565b505050565b6106cb83838360405180602001604052806000815250610906565b505050565b80600790816106df91906123e9565b5050565b6000806106ef836111a5565b9050600073ffffffffffffffffffffffffffffffffffffffff168173ffffffffffffffffffffffffffffffffffffffff1603610760576040517f08c379a000000000000000000000000000000000000000000000000000000000815260040161075790612507565b60405180910390fd5b80915050919050565b60008073ffffffffffffffffffffffffffffffffffffffff168273ffffffffffffffffffffffffffffffffffffffff16036107d9576040517f08c379a00000000000000000000000000000000000000000000000000000000081526004016107d090612599565b60405180910390fd5b600360008373ffffffffffffffffffffffffffffffffffffffff1673ffffffffffffffffffffffffffffffffffffffff168152602001908152602001600020549050919050565b6108286111e2565b6108326000611260565b565b6000600660009054906101000a900473ffffffffffffffffffffffffffffffffffffffff16905090565b60606001805461086d90612056565b80601f016020809104026020016040519081016040528092919081815260200182805461089990612056565b80156108e65780601f106108bb576101008083540402835291602001916108e6565b820191906000526020600020905b8154815290600101906020018083116108c957829003601f168201915b5050505050905090565b6109026108fb610d56565b8383611326565b5050565b610917610911610d56565b83610e17565b610956576040517f08c379a000000000000000000000000000000000000000000000000000000000815260040161094d9061221d565b60405180910390fd5b61096284848484611492565b50505050565b6060610973826114ee565b6109b2576040517f08c379a00000000000000000000000000000000000000000000000000000000081526004016109a990612605565b60405180910390fd5b6000600780546109c190612056565b80601f01602080910402602001604051908101604052809291908181526020018280546109ed90612056565b8015610a3a5780601f10610a0f57610100808354040283529160200191610a3a565b820191906000526020600020905b815481529060010190602001808311610a1d57829003601f168201915b505050505090506000600960008581526020019081526020016000208054610a6190612056565b80601f0160208091040260200160405190810160405280929190818152602001828054610a8d90612056565b8015610ada5780601f10610aaf57610100808354040283529160200191610ada565b820191906000526020600020905b815481529060010190602001808311610abd57829003601f168201915b505050505090506000815111610b25576040517f08c379a0000000000000000000000000000000000000000000000000000000008152600401610b1c90612671565b60405180910390fd5b8181604051602001610b389291906126cd565b60405160208183030381529060405292505050919050565b6000600560008473ffffffffffffffffffffffffffffffffffffffff1673ffffffffffffffffffffffffffffffffffffffff16815260200190815260200160002060008373ffffffffffffffffffffffffffffffffffffffff1673ffffffffffffffffffffffffffffffffffffffff16815260200190815260200160002060009054906101000a900460ff16905092915050565b600160086000828254610bf79190612720565b9250508190555060006008549050610c0f838261152f565b610c19818361174c565b505050565b610c266111e2565b600073ffffffffffffffffffffffffffffffffffffffff168173ffffffffffffffffffffffffffffffffffffffff1603610c95576040517f08c379a0000000000000000000000000000000000000000000000000000000008152600401610c8c906127c6565b60405180910390fd5b610c9e81611260565b50565b60007f01ffc9a7000000000000000000000000000000000000000000000000000000007bffffffffffffffffffffffffffffffffffffffffffffffffffffffff1916827bffffffffffffffffffffffffffffffffffffffffffffffffffffffff1916149050919050565b610d14816114ee565b610d53576040517f08c379a0000000000000000000000000000000000000000000000000000000008152600401610d4a90612507565b60405180910390fd5b50565b600033905090565b816004600083815260200190815260200160002060006101000a81548173ffffffffffffffffffffffffffffffffffffffff021916908373ffffffffffffffffffffffffffffffffffffffff160217905550808273ffffffffffffffffffffffffffffffffffffffff16610dd1836106e3565b73ffffffffffffffffffffffffffffffffffffffff167f8c5be1e5ebec7d5bd14f71427d1e84f3dd0314c0f7b2291e5b200ac8c7c3b92560405160405180910390a45050565b600080610e23836106e3565b90508073ffffffffffffffffffffffffffffffffffffffff168473ffffffffffffffffffffffffffffffffffffffff161480610e655750610e648185610b50565b5b80610ea357508373ffffffffffffffffffffffffffffffffffffffff16610e8b846104f3565b73ffffffffffffffffffffffffffffffffffffffff16145b91505092915050565b8273ffffffffffffffffffffffffffffffffffffffff16610ecc826106e3565b73ffffffffffffffffffffffffffffffffffffffff1614610f22576040517f08c379a0000000000000000000000000000000000000000000000000000000008152600401610f1990612858565b60405180910390fd5b600073ffffffffffffffffffffffffffffffffffffffff168273ffffffffffffffffffffffffffffffffffffffff1603610f91576040517f08c379a0000000000000000000000000000000000000000000000000000000008152600401610f88906128ea565b60405180910390fd5b610f9e8383836001611771565b8273ffffffffffffffffffffffffffffffffffffffff16610fbe826106e3565b73ffffffffffffffffffffffffffffffffffffffff1614611014576040517f08c379a000000000000000000000000000000000000000000000000000000000815260040161100b90612858565b60405180910390fd5b6004600082815260200190815260200160002060006101000a81549073ffffffffffffffffffffffffffffffffffffffff02191690556001600360008573ffffffffffffffffffffffffffffffffffffffff1673ffffffffffffffffffffffffffffffffffffffff168152602001908152602001600020600082825403925050819055506001600360008473ffffffffffffffffffffffffffffffffffffffff1673ffffffffffffffffffffffffffffffffffffffff16815260200190815260200160002060008282540192505081905550816002600083815260200190815260200160002060006101000a81548173ffffffffffffffffffffffffffffffffffffffff021916908373ffffffffffffffffffffffffffffffffffffffff160217905550808273ffffffffffffffffffffffffffffffffffffffff168473ffffffffffffffffffffffffffffffffffffffff167fddf252ad1be2c89b69c2b068fc378daa952ba7f163c4a11628f55a4df523b3ef60405160405180910390a46111a08383836001611777565b505050565b60006002600083815260200190815260200160002060009054906101000a900473ffffffffffffffffffffffffffffffffffffffff169050919050565b6111ea610d56565b73ffffffffffffffffffffffffffffffffffffffff16611208610834565b73ffffffffffffffffffffffffffffffffffffffff161461125e576040517f08c379a000000000000000000000000000000000000000000000000000000000815260040161125590612956565b60405180910390fd5b565b6000600660009054906101000a900473ffffffffffffffffffffffffffffffffffffffff16905081600660006101000a81548173ffffffffffffffffffffffffffffffffffffffff021916908373ffffffffffffffffffffffffffffffffffffffff1602179055508173ffffffffffffffffffffffffffffffffffffffff168173ffffffffffffffffffffffffffffffffffffffff167f8be0079c531659141344cd1fd0a4f28419497f9722a3daafe3b4186f6b6457e060405160405180910390a35050565b8173ffffffffffffffffffffffffffffffffffffffff168373ffffffffffffffffffffffffffffffffffffffff1603611394576040517f08c379a000000000000000000000000000000000000000000000000000000000815260040161138b906129c2565b60405180910390fd5b80600560008573ffffffffffffffffffffffffffffffffffffffff1673ffffffffffffffffffffffffffffffffffffffff16815260200190815260200160002060008473ffffffffffffffffffffffffffffffffffffffff1673ffffffffffffffffffffffffffffffffffffffff16815260200190815260200160002060006101000a81548160ff0219169083151502179055508173ffffffffffffffffffffffffffffffffffffffff168373ffffffffffffffffffffffffffffffffffffffff167f17307eab39ab6107e8899845ad3d59bd9653f200f220920489ca2b5937696c318360405161148591906119db565b60405180910390a3505050565b61149d848484610eac565b6114a98484848461177d565b6114e8576040517f08c379a00000000000000000000000000000000000000000000000000000000081526004016114df90612a54565b60405180910390fd5b50505050565b60008073ffffffffffffffffffffffffffffffffffffffff16611510836111a5565b73ffffffffffffffffffffffffffffffffffffffff1614159050919050565b600073ffffffffffffffffffffffffffffffffffffffff168273ffffffffffffffffffffffffffffffffffffffff160361159e576040517f08c379a000000000000000000000000000000000000000000000000000000000815260040161159590612ac0565b60405180910390fd5b6115a7816114ee565b156115e7576040517f08c379a00000000000000000000000000000000000000000000000000000000081526004016115de90612b2c565b60405180910390fd5b6115f5600083836001611771565b6115fe816114ee565b1561163e576040517f08c379a000000000000000000000000000000000000000000000000000000000815260040161163590612b2c565b60405180910390fd5b6001600360008473ffffffffffffffffffffffffffffffffffffffff1673ffffffffffffffffffffffffffffffffffffffff16815260200190815260200160002060008282540192505081905550816002600083815260200190815260200160002060006101000a81548173ffffffffffffffffffffffffffffffffffffffff021916908373ffffffffffffffffffffffffffffffffffffffff160217905550808273ffffffffffffffffffffffffffffffffffffffff16600073ffffffffffffffffffffffffffffffffffffffff167fddf252ad1be2c89b69c2b068fc378daa952ba7f163c4a11628f55a4df523b3ef60405160405180910390a4611748600083836001611777565b5050565b8060096000848152602001908152602001600020908161176c91906123e9565b505050565b50505050565b50505050565b600061179e8473ffffffffffffffffffffffffffffffffffffffff16611904565b156118f7578373ffffffffffffffffffffffffffffffffffffffff1663150b7a026117c7610d56565b8786866040518563ffffffff1660e01b81526004016117e99493929190612ba1565b6020604051808303816000875af192505050801561182557506040513d601f19601f820116820180604052508101906118229190612c02565b60015b6118a7573d8060008114611855576040519150601f19603f3d011682016040523d82523d6000602084013e61185a565b606091505b50600081510361189f576040517f08c379a000000000000000000000000000000000000000000000000000000000815260040161189690612a54565b60405180910390fd5b805181602001fd5b63150b7a0260e01b7bffffffffffffffffffffffffffffffffffffffffffffffffffffffff1916817bffffffffffffffffffffffffffffffffffffffffffffffffffffffff1916149150506118fc565b600190505b949350505050565b6000808273ffffffffffffffffffffffffffffffffffffffff163b119050919050565b6000604051905090565b600080fd5b600080fd5b60007fffffffff0000000000000000000000000000000000000000000000000000000082169050919050565b6119708161193b565b811461197b57600080fd5b50565b60008135905061198d81611967565b92915050565b6000602082840312156119a9576119a8611931565b5b60006119b78482850161197e565b91505092915050565b60008115159050919050565b6119d5816119c0565b82525050565b60006020820190506119f060008301846119cc565b92915050565b600081519050919050565b600082825260208201905092915050565b60005b83811015611a30578082015181840152602081019050611a15565b60008484015250505050565b6000601f19601f8301169050919050565b6000611a58826119f6565b611a628185611a01565b9350611a72818560208601611a12565b611a7b81611a3c565b840191505092915050565b60006020820190508181036000830152611aa08184611a4d565b905092915050565b6000819050919050565b611abb81611aa8565b8114611ac657600080fd5b50565b600081359050611ad881611ab2565b92915050565b600060208284031215611af457611af3611931565b5b6000611b0284828501611ac9565b91505092915050565b600073ffffffffffffffffffffffffffffffffffffffff82169050919050565b6000611b3682611b0b565b9050919050565b611b4681611b2b565b82525050565b6000602082019050611b616000830184611b3d565b92915050565b611b7081611b2b565b8114611b7b57600080fd5b50565b600081359050611b8d81611b67565b92915050565b60008060408385031215611baa57611ba9611931565b5b6000611bb885828601611b7e565b9250506020611bc985828601611ac9565b9150509250929050565b600080600060608486031215611bec57611beb611931565b5b6000611bfa86828701611b7e565b9350506020611c0b86828701611b7e565b9250506040611c1c86828701611ac9565b9150509250925092565b600080fd5b600080fd5b7f4e487b7100000000000000000000000000000000000000000000000000000000600052604160045260246000fd5b611c6882611a3c565b810181811067ffffffffffffffff82111715611c8757611c86611c30565b5b80604052505050565b6000611c9a611927565b9050611ca68282611c5f565b919050565b600067ffffffffffffffff821115611cc657611cc5611c30565b5b611ccf82611a3c565b9050602081019050919050565b82818337600083830152505050565b6000611cfe611cf984611cab565b611c90565b905082815260208101848484011115611d1a57611d19611c2b565b5b611d25848285611cdc565b509392505050565b600082601f830112611d4257611d41611c26565b5b8135611d52848260208601611ceb565b91505092915050565b600060208284031215611d7157611d70611931565b5b600082013567ffffffffffffffff811115611d8f57611d8e611936565b5b611d9b84828501611d2d565b91505092915050565b600060208284031215611dba57611db9611931565b5b6000611dc884828501611b7e565b91505092915050565b611dda81611aa8565b82525050565b6000602082019050611df56000830184611dd1565b92915050565b611e04816119c0565b8114611e0f57600080fd5b50565b600081359050611e2181611dfb565b92915050565b60008060408385031215611e3e57611e3d611931565b5b6000611e4c85828601611b7e565b9250506020611e5d85828601611e12565b9150509250929050565b600067ffffffffffffffff821115611e8257611e81611c30565b5b611e8b82611a3c565b9050602081019050919050565b6000611eab611ea684611e67565b611c90565b905082815260208101848484011115611ec757611ec6611c2b565b5b611ed2848285611cdc565b509392505050565b600082601f830112611eef57611eee611c26565b5b8135611eff848260208601611e98565b91505092915050565b60008060008060808587031215611f2257611f21611931565b5b6000611f3087828801611b7e565b9450506020611f4187828801611b7e565b9350506040611f5287828801611ac9565b925050606085013567ffffffffffffffff811115611f7357611f72611936565b5b611f7f87828801611eda565b91505092959194509250565b60008060408385031215611fa257611fa1611931565b5b6000611fb085828601611b7e565b9250506020611fc185828601611b7e565b9150509250929050565b60008060408385031215611fe257611fe1611931565b5b6000611ff085828601611b7e565b925050602083013567ffffffffffffffff81111561201157612010611936565b5b61201d85828601611d2d565b9150509250929050565b7f4e487b7100000000000000000000000000000000000000000000000000000000600052602260045260246000fd5b6000600282049050600182168061206e57607f821691505b60208210810361208157612080612027565b5b50919050565b7f4552433732313a20617070726f76616c20746f2063757272656e74206f776e6560008201527f7200000000000000000000000000000000000000000000000000000000000000602082015250565b60006120e3602183611a01565b91506120ee82612087565b604082019050919050565b60006020820190508181036000830152612112816120d6565b9050919050565b7f4552433732313a20617070726f76652063616c6c6572206973206e6f7420746f60008201527f6b656e206f776e6572206f7220617070726f76656420666f7220616c6c000000602082015250565b6000612175603d83611a01565b915061218082612119565b604082019050919050565b600060208201905081810360008301526121a481612168565b9050919050565b7f4552433732313a2063616c6c6572206973206e6f7420746f6b656e206f776e6560008201527f72206f7220617070726f76656400000000000000000000000000000000000000602082015250565b6000612207602d83611a01565b9150612212826121ab565b604082019050919050565b60006020820190508181036000830152612236816121fa565b9050919050565b60008190508160005260206000209050919050565b60006020601f8301049050919050565b600082821b905092915050565b60006008830261229f7fffffffffffffffffffffffffffffffffffffffffffffffffffffffffffffffff82612262565b6122a98683612262565b95508019841693508086168417925050509392505050565b6000819050919050565b60006122e66122e16122dc84611aa8565b6122c1565b611aa8565b9050919050565b6000819050919050565b612300836122cb565b61231461230c826122ed565b84845461226f565b825550505050565b600090565b61232961231c565b6123348184846122f7565b505050565b5b818110156123585761234d600082612321565b60018101905061233a565b5050565b601f82111561239d5761236e8161223d565b61237784612252565b81016020851015612386578190505b61239a61239285612252565b830182612339565b50505b505050565b600082821c905092915050565b60006123c0600019846008026123a2565b1980831691505092915050565b60006123d983836123af565b9150826002028217905092915050565b6123f2826119f6565b67ffffffffffffffff81111561240b5761240a611c30565b5b6124158254612056565b61242082828561235c565b600060209050601f8311600181146124535760008415612441578287015190505b61244b85826123cd565b8655506124b3565b601f1984166124618661223d565b60005b8281101561248957848901518255600182019150602085019450602081019050612464565b868310156124a657848901516124a2601f8916826123af565b8355505b6001600288020188555050505b505050505050565b7f4552433732313a20696e76616c696420746f6b656e2049440000000000000000600082015250565b60006124f1601883611a01565b91506124fc826124bb565b602082019050919050565b60006020820190508181036000830152612520816124e4565b9050919050565b7f4552433732313a2061646472657373207a65726f206973206e6f74206120766160008201527f6c6964206f776e65720000000000000000000000000000000000000000000000602082015250565b6000612583602983611a01565b915061258e82612527565b604082019050919050565b600060208201905081810360008301526125b281612576565b9050919050565b7f546f6b656e20646f6573206e6f74206578697374000000000000000000000000600082015250565b60006125ef601483611a01565b91506125fa826125b9565b602082019050919050565b6000602082019050818103600083015261261e816125e2565b9050919050565b7f4950465320555249206e6f742073657420666f72207468697320746f6b656e00600082015250565b600061265b601f83611a01565b915061266682612625565b602082019050919050565b6000602082019050818103600083015261268a8161264e565b9050919050565b600081905092915050565b60006126a7826119f6565b6126b18185612691565b93506126c1818560208601611a12565b80840191505092915050565b60006126d9828561269c565b91506126e5828461269c565b91508190509392505050565b7f4e487b7100000000000000000000000000000000000000000000000000000000600052601160045260246000fd5b600061272b82611aa8565b915061273683611aa8565b925082820190508082111561274e5761274d6126f1565b5b92915050565b7f4f776e61626c653a206e6577206f776e657220697320746865207a65726f206160008201527f6464726573730000000000000000000000000000000000000000000000000000602082015250565b60006127b0602683611a01565b91506127bb82612754565b604082019050919050565b600060208201905081810360008301526127df816127a3565b9050919050565b7f4552433732313a207472616e736665722066726f6d20696e636f72726563742060008201527f6f776e6572000000000000000000000000000000000000000000000000000000602082015250565b6000612842602583611a01565b915061284d826127e6565b604082019050919050565b6000602082019050818103600083015261287181612835565b9050919050565b7f4552433732313a207472616e7366657220746f20746865207a65726f2061646460008201527f7265737300000000000000000000000000000000000000000000000000000000602082015250565b60006128d4602483611a01565b91506128df82612878565b604082019050919050565b60006020820190508181036000830152612903816128c7565b9050919050565b7f4f776e61626c653a2063616c6c6572206973206e6f7420746865206f776e6572600082015250565b6000612940602083611a01565b915061294b8261290a565b602082019050919050565b6000602082019050818103600083015261296f81612933565b9050919050565b7f4552433732313a20617070726f766520746f2063616c6c657200000000000000600082015250565b60006129ac601983611a01565b91506129b782612976565b602082019050919050565b600060208201905081810360008301526129db8161299f565b9050919050565b7f4552433732313a207472616e7366657220746f206e6f6e20455243373231526560008201527f63656976657220696d706c656d656e7465720000000000000000000000000000602082015250565b6000612a3e603283611a01565b9150612a49826129e2565b604082019050919050565b60006020820190508181036000830152612a6d81612a31565b9050919050565b7f4552433732313a206d696e7420746f20746865207a65726f2061646472657373600082015250565b6000612aaa602083611a01565b9150612ab582612a74565b602082019050919050565b60006020820190508181036000830152612ad981612a9d565b9050919050565b7f4552433732313a20746f6b656e20616c7265616479206d696e74656400000000600082015250565b6000612b16601c83611a01565b9150612b2182612ae0565b602082019050919050565b60006020820190508181036000830152612b4581612b09565b9050919050565b600081519050919050565b600082825260208201905092915050565b6000612b7382612b4c565b612b7d8185612b57565b9350612b8d818560208601611a12565b612b9681611a3c565b840191505092915050565b6000608082019050612bb66000830187611b3d565b612bc36020830186611b3d565b612bd06040830185611dd1565b8181036060830152612be28184612b68565b905095945050505050565b600081519050612bfc81611967565b92915050565b600060208284031215612c1857612c17611931565b5b6000612c2684828501612bed565b9150509291505056fea26469706673582212201ecd7d1bb2f900ce935df5255a93d15bfb929c7b90ebe2ca2647404935683ba964736f6c63430008120033",
  "linkReferences": {},
  "deployedLinkReferences": {}
}